{
  "_format": "hh-sol-artifact-1",
  "contractName": "GoldTraceability",
  "sourceName": "contracts/GoldTraceability.sol",
  "abi": [
    {
      "anonymous": false,
      "inputs": [
        {
          "indexed": false,
          "internalType": "address",
          "name": "previousAdmin",
          "type": "address"
        },
        {
          "indexed": false,
          "internalType": "address",
          "name": "newAdmin",
          "type": "address"
        }
      ],
      "name": "AdminChanged",
      "type": "event"
    },
    {
      "anonymous": false,
      "inputs": [
        {
          "indexed": true,
          "internalType": "uint256",
          "name": "blockId",
          "type": "uint256"
        },
        {
          "indexed": true,
          "internalType": "address",
          "name": "user",
          "type": "address"
        }
      ],
      "name": "AuthorizationRevoked",
      "type": "event"
    },
    {
      "anonymous": false,
      "inputs": [
        {
          "indexed": true,
          "internalType": "address",
          "name": "beacon",
          "type": "address"
        }
      ],
      "name": "BeaconUpgraded",
      "type": "event"
    },
    {
      "anonymous": false,
      "inputs": [
        {
          "indexed": false,
          "internalType": "uint32",
          "name": "blockId",
          "type": "uint32"
        },
        {
          "indexed": false,
          "internalType": "bytes2",
          "name": "producer",
          "type": "bytes2"
        },
        {
          "indexed": false,
          "internalType": "bytes",
          "name": "location",
          "type": "bytes"
        },
        {
          "indexed": false,
          "internalType": "uint256",
          "name": "weight",
          "type": "uint256"
        },
        {
          "indexed": false,
          "internalType": "uint256",
          "name": "timestamp",
          "type": "uint256"
        },
        {
          "indexed": false,
          "internalType": "address",
          "name": "owner",
          "type": "address"
        }
      ],
      "name": "GoldBlockCreated",
      "type": "event"
    },
    {
      "anonymous": false,
      "inputs": [
        {
          "indexed": false,
          "internalType": "uint256",
          "name": "blockId",
          "type": "uint256"
        }
      ],
      "name": "GoldBlockDestroyed",
      "type": "event"
    },
    {
      "anonymous": false,
      "inputs": [
        {
          "indexed": false,
          "internalType": "uint256",
          "name": "blockId",
          "type": "uint256"
        },
        {
          "indexed": false,
          "internalType": "address",
          "name": "from",
          "type": "address"
        },
        {
          "indexed": false,
          "internalType": "address",
          "name": "to",
          "type": "address"
        },
        {
          "indexed": false,
          "internalType": "uint256",
          "name": "timestamp",
          "type": "uint256"
        }
      ],
      "name": "GoldBlockTransferred",
      "type": "event"
    },
    {
      "anonymous": false,
      "inputs": [
        {
          "indexed": false,
          "internalType": "uint8",
          "name": "version",
          "type": "uint8"
        }
      ],
      "name": "Initialized",
      "type": "event"
    },
    {
      "anonymous": false,
      "inputs": [
        {
          "indexed": true,
          "internalType": "address",
          "name": "previousOwner",
          "type": "address"
        },
        {
          "indexed": true,
          "internalType": "address",
          "name": "newOwner",
          "type": "address"
        }
      ],
      "name": "OwnershipTransferred",
      "type": "event"
    },
    {
      "anonymous": false,
      "inputs": [
        {
          "indexed": false,
          "internalType": "uint256",
          "name": "transactionId",
          "type": "uint256"
        },
        {
          "indexed": false,
          "internalType": "uint256",
          "name": "blockId",
          "type": "uint256"
        },
        {
          "indexed": false,
          "internalType": "address",
          "name": "from",
          "type": "address"
        },
        {
          "indexed": false,
          "internalType": "address",
          "name": "to",
          "type": "address"
        },
        {
          "indexed": false,
          "internalType": "uint256",
          "name": "timestamp",
          "type": "uint256"
        }
      ],
      "name": "TransactionCreated",
      "type": "event"
    },
    {
      "anonymous": false,
      "inputs": [
        {
          "indexed": true,
          "internalType": "address",
          "name": "implementation",
          "type": "address"
        }
      ],
      "name": "Upgraded",
      "type": "event"
    },
    {
      "anonymous": false,
      "inputs": [
        {
          "indexed": true,
          "internalType": "uint256",
          "name": "blockId",
          "type": "uint256"
        },
        {
          "indexed": true,
          "internalType": "address",
          "name": "user",
          "type": "address"
        }
      ],
      "name": "UserAuthorized",
      "type": "event"
    },
    {
      "inputs": [
        {
          "internalType": "uint32",
          "name": "",
          "type": "uint32"
        },
        {
          "internalType": "address",
          "name": "",
          "type": "address"
        }
      ],
      "name": "authorizedUsers",
      "outputs": [
        {
          "internalType": "bool",
          "name": "",
          "type": "bool"
        }
      ],
      "stateMutability": "view",
      "type": "function"
    },
    {
      "inputs": [
        {
          "internalType": "bytes8",
          "name": "id",
          "type": "bytes8"
        },
        {
          "internalType": "bytes2",
          "name": "producer",
          "type": "bytes2"
        },
        {
          "internalType": "bytes",
          "name": "location",
          "type": "bytes"
        },
        {
          "internalType": "uint32",
          "name": "weight",
          "type": "uint32"
        },
        {
          "internalType": "uint256",
          "name": "timestamp",
          "type": "uint256"
        },
        {
          "internalType": "uint32[]",
          "name": "parentIds",
          "type": "uint32[]"
        },
        {
          "internalType": "enum GoldTraceability.GoldType",
          "name": "goldType",
          "type": "uint8"
        },
        {
          "internalType": "bytes",
          "name": "signature",
          "type": "bytes"
        }
      ],
      "name": "createGoldBlock",
      "outputs": [],
      "stateMutability": "nonpayable",
      "type": "function"
    },
    {
      "inputs": [
        {
          "internalType": "uint32",
          "name": "blockId",
          "type": "uint32"
        }
      ],
      "name": "destroyGoldBlock",
      "outputs": [],
      "stateMutability": "nonpayable",
      "type": "function"
    },
    {
      "inputs": [
        {
          "internalType": "address",
          "name": "owner",
          "type": "address"
        }
      ],
      "name": "getGoldBlocksByOwner",
      "outputs": [
        {
          "internalType": "uint32[]",
          "name": "",
          "type": "uint32[]"
        }
      ],
      "stateMutability": "view",
      "type": "function"
    },
    {
      "inputs": [
        {
          "internalType": "uint32",
          "name": "blockId",
          "type": "uint32"
        }
      ],
      "name": "getParentIds",
      "outputs": [
        {
          "internalType": "uint32[]",
          "name": "",
          "type": "uint32[]"
        }
      ],
      "stateMutability": "view",
      "type": "function"
    },
    {
      "inputs": [
        {
          "internalType": "uint32",
          "name": "blockId",
          "type": "uint32"
        }
      ],
      "name": "getTransactionIds",
      "outputs": [
        {
          "internalType": "uint32[]",
          "name": "",
          "type": "uint32[]"
        }
      ],
      "stateMutability": "view",
      "type": "function"
    },
    {
      "inputs": [
        {
          "internalType": "address",
          "name": "addr",
          "type": "address"
        }
      ],
      "name": "getTransactionsByAddress",
      "outputs": [
        {
          "internalType": "uint32[]",
          "name": "",
          "type": "uint32[]"
        }
      ],
      "stateMutability": "view",
      "type": "function"
    },
    {
      "inputs": [],
      "name": "getVersion",
      "outputs": [
        {
          "internalType": "string",
          "name": "",
          "type": "string"
        }
      ],
      "stateMutability": "pure",
      "type": "function"
    },
    {
      "inputs": [
        {
          "internalType": "uint32",
          "name": "",
          "type": "uint32"
        }
      ],
      "name": "goldBlocks",
      "outputs": [
        {
          "internalType": "bytes8",
          "name": "id",
          "type": "bytes8"
        },
        {
          "internalType": "bytes2",
          "name": "producer",
          "type": "bytes2"
        },
        {
          "internalType": "bytes",
          "name": "location",
          "type": "bytes"
        },
        {
          "internalType": "uint32",
          "name": "weight",
          "type": "uint32"
        },
        {
          "internalType": "uint256",
          "name": "timestamp",
          "type": "uint256"
        },
        {
          "internalType": "address",
          "name": "owner",
          "type": "address"
        },
        {
          "internalType": "enum GoldTraceability.GoldType",
          "name": "goldType",
          "type": "uint8"
        }
      ],
      "stateMutability": "view",
      "type": "function"
    },
    {
      "inputs": [
        {
          "internalType": "uint32",
          "name": "blockId",
          "type": "uint32"
        },
        {
          "internalType": "address[]",
          "name": "users",
          "type": "address[]"
        }
      ],
      "name": "grantAccess",
      "outputs": [],
      "stateMutability": "nonpayable",
      "type": "function"
    },
    {
      "inputs": [],
      "name": "initialize",
      "outputs": [],
      "stateMutability": "nonpayable",
      "type": "function"
    },
    {
      "inputs": [],
      "name": "owner",
      "outputs": [
        {
          "internalType": "address",
          "name": "",
          "type": "address"
        }
      ],
      "stateMutability": "view",
      "type": "function"
    },
    {
      "inputs": [],
      "name": "proxiableUUID",
      "outputs": [
        {
          "internalType": "bytes32",
          "name": "",
          "type": "bytes32"
        }
      ],
      "stateMutability": "view",
      "type": "function"
    },
    {
      "inputs": [],
      "name": "renounceOwnership",
      "outputs": [],
      "stateMutability": "nonpayable",
      "type": "function"
    },
    {
      "inputs": [
        {
          "internalType": "uint32",
          "name": "blockId",
          "type": "uint32"
        },
        {
          "internalType": "address[]",
          "name": "users",
          "type": "address[]"
        }
      ],
      "name": "revokeAuthorization",
      "outputs": [],
      "stateMutability": "nonpayable",
      "type": "function"
    },
    {
      "inputs": [
        {
          "internalType": "uint32",
          "name": "",
          "type": "uint32"
        }
      ],
      "name": "transactions",
      "outputs": [
        {
          "internalType": "address",
          "name": "from",
          "type": "address"
        },
        {
          "internalType": "address",
          "name": "to",
          "type": "address"
        },
        {
          "internalType": "uint32",
          "name": "blockId",
          "type": "uint32"
        },
        {
          "internalType": "uint256",
          "name": "timestamp",
          "type": "uint256"
        }
      ],
      "stateMutability": "view",
      "type": "function"
    },
    {
      "inputs": [
        {
          "internalType": "uint32",
          "name": "blockId",
          "type": "uint32"
        },
        {
          "internalType": "address",
          "name": "to",
          "type": "address"
        }
      ],
      "name": "transferGoldBlock",
      "outputs": [],
      "stateMutability": "nonpayable",
      "type": "function"
    },
    {
      "inputs": [
        {
          "internalType": "address",
          "name": "newOwner",
          "type": "address"
        }
      ],
      "name": "transferOwnership",
      "outputs": [],
      "stateMutability": "nonpayable",
      "type": "function"
    },
    {
      "inputs": [
        {
          "internalType": "address",
          "name": "newImplementation",
          "type": "address"
        }
      ],
      "name": "upgradeTo",
      "outputs": [],
      "stateMutability": "nonpayable",
      "type": "function"
    },
    {
      "inputs": [
        {
          "internalType": "address",
          "name": "newImplementation",
          "type": "address"
        },
        {
          "internalType": "bytes",
          "name": "data",
          "type": "bytes"
        }
      ],
      "name": "upgradeToAndCall",
      "outputs": [],
      "stateMutability": "payable",
      "type": "function"
    }
  ],
  "bytecode": "0x60a06040523060805234801561001457600080fd5b50608051612f6761004c600039600081816108060152818161088b01528181610ad901528181610b5e0152610c480152612f676000f3fe60806040526004361061015f5760003560e01c8063715018a6116100c0578063bb08bdd311610074578063d852eb0011610059578063d852eb001461045b578063dfd1cfe11461047b578063f2fde38b1461049b57600080fd5b8063bb08bdd3146103ae578063bd005975146103ce57600080fd5b80638da5cb5b116100a55780638da5cb5b1461033357806390aae4551461035b578063a3744b201461037b57600080fd5b8063715018a6146103095780638129fc1c1461031e57600080fd5b80634f1ef286116101175780636081fa8f116100fc5780636081fa8f1461027e57806363b3eac2146102c95780636e56c532146102e957600080fd5b80634f1ef2861461024857806352d1902d1461025b57600080fd5b806322996aa11161014857806322996aa1146101e65780633659cfe6146102085780633c0cc4981461022857600080fd5b80630947b4dc146101645780630d8e6e2c1461019a575b600080fd5b34801561017057600080fd5b5061018461017f3660046126d7565b6104bb565b60405161019191906126f2565b60405180910390f35b3480156101a657600080fd5b50604080518082018252600681527f76312e302e37000000000000000000000000000000000000000000000000000060208201529051610191919061278c565b3480156101f257600080fd5b506102066102013660046127b3565b610553565b005b34801561021457600080fd5b506102066102233660046126d7565b6107fc565b34801561023457600080fd5b50610206610243366004612851565b610977565b610206610256366004612971565b610acf565b34801561026757600080fd5b50610270610c3b565b604051908152602001610191565b34801561028a57600080fd5b506102b96102993660046127b3565b60ce60209081526000928352604080842090915290825290205460ff1681565b6040519015158152602001610191565b3480156102d557600080fd5b506102066102e4366004612a6b565b610d00565b3480156102f557600080fd5b506101846103043660046126d7565b6111bf565b34801561031557600080fd5b5061020661122f565b34801561032a57600080fd5b50610206611243565b34801561033f57600080fd5b506097546040516001600160a01b039091168152602001610191565b34801561036757600080fd5b50610184610376366004612b40565b611383565b34801561038757600080fd5b5061039b610396366004612b40565b6113f3565b6040516101919796959493929190612b71565b3480156103ba57600080fd5b506102066103c9366004612851565b6114dd565b3480156103da57600080fd5b506104256103e9366004612b40565b60ca602052600090815260409020805460018201546002909201546001600160a01b039182169291821691600160a01b900463ffffffff169084565b604080516001600160a01b03958616815294909316602085015263ffffffff909116918301919091526060820152608001610191565b34801561046757600080fd5b50610206610476366004612b40565b61162d565b34801561048757600080fd5b50610184610496366004612b40565b611768565b3480156104a757600080fd5b506102066104b63660046126d7565b6117d8565b6001600160a01b038116600090815260cd602090815260409182902080548351818402810184019094528084526060939283018282801561054757602002820191906000526020600020906000905b82829054906101000a900463ffffffff1663ffffffff168152602001906004019060208260030104928301926001038202915080841161050a5790505b50505050509050919050565b63ffffffff8216600090815260cb602052604090206004015482906001600160a01b03166105c85760405162461bcd60e51b815260206004820152601960248201527f476f6c6420626c6f636b20646f6573206e6f742065786973740000000000000060448201526064015b60405180910390fd5b63ffffffff8316600090815260cb602052604090206004015483906001600160a01b0316331480610619575063ffffffff8116600090815260ce6020908152604080832033845290915290205460ff165b6106655760405162461bcd60e51b815260206004820152600e60248201527f4e6f7420617574686f72697a656400000000000000000000000000000000000060448201526064016105bf565b63ffffffff848116600081815260cb60209081526040808320600490810180546001600160a01b031981166001600160a01b038c8116918217909355865260cc855283862080546001810182559087528587206008820401805460079092169094026101000a9889021916979096029690961790559390921680825283822080548551818602810186019096528086529194929390919083018282801561075757602002820191906000526020600020906000905b82829054906101000a900463ffffffff1663ffffffff168152602001906004019060208260030104928301926001038202915080841161071a5790505b505050505090506107688187611865565b6001600160a01b038316600090815260cc602090815260409091208251610795939192919091019061259c565b506107a18683876119d9565b6040805163ffffffff881681523360208201526001600160a01b0387168183015242606082015290517f4a19f7037de5f58b97e82d2c8a55ea5babd1b35073a969ea4287796b2f6300679181900360800190a1505050505050565b6001600160a01b037f00000000000000000000000000000000000000000000000000000000000000001630036108895760405162461bcd60e51b815260206004820152602c60248201527f46756e6374696f6e206d7573742062652063616c6c6564207468726f7567682060448201526b19195b1959d85d1958d85b1b60a21b60648201526084016105bf565b7f00000000000000000000000000000000000000000000000000000000000000006001600160a01b03166108e47f360894a13ba1a3210667c828492db98dca3e2076cc3735a920a3ca505d382bbc546001600160a01b031690565b6001600160a01b03161461094f5760405162461bcd60e51b815260206004820152602c60248201527f46756e6374696f6e206d7573742062652063616c6c6564207468726f7567682060448201526b6163746976652070726f787960a01b60648201526084016105bf565b61095881611b7e565b6040805160008082526020820190925261097491839190611b86565b50565b63ffffffff8216600090815260cb602052604090206004015482906001600160a01b031633146109e95760405162461bcd60e51b815260206004820152601e60248201527f4f6e6c79206f776e65722063616e20617574686f72697a65207573657273000060448201526064016105bf565b60005b8251811015610ac95763ffffffff8416600090815260ce60205260408120845160019290869085908110610a2257610a22612bf4565b60200260200101516001600160a01b03166001600160a01b0316815260200190815260200160002060006101000a81548160ff021916908315150217905550828181518110610a7357610a73612bf4565b60200260200101516001600160a01b03168463ffffffff167f4eebcb0f1bbb6d724ee065a3c0c8445b72ac42c3be3539b2abf744a5ae7ec07e60405160405180910390a380610ac181612c20565b9150506109ec565b50505050565b6001600160a01b037f0000000000000000000000000000000000000000000000000000000000000000163003610b5c5760405162461bcd60e51b815260206004820152602c60248201527f46756e6374696f6e206d7573742062652063616c6c6564207468726f7567682060448201526b19195b1959d85d1958d85b1b60a21b60648201526084016105bf565b7f00000000000000000000000000000000000000000000000000000000000000006001600160a01b0316610bb77f360894a13ba1a3210667c828492db98dca3e2076cc3735a920a3ca505d382bbc546001600160a01b031690565b6001600160a01b031614610c225760405162461bcd60e51b815260206004820152602c60248201527f46756e6374696f6e206d7573742062652063616c6c6564207468726f7567682060448201526b6163746976652070726f787960a01b60648201526084016105bf565b610c2b82611b7e565b610c3782826001611b86565b5050565b6000306001600160a01b037f00000000000000000000000000000000000000000000000000000000000000001614610cdb5760405162461bcd60e51b815260206004820152603860248201527f555550535570677261646561626c653a206d757374206e6f742062652063616c60448201527f6c6564207468726f7567682064656c656761746563616c6c000000000000000060648201526084016105bf565b507f360894a13ba1a3210667c828492db98dca3e2076cc3735a920a3ca505d382bbc90565b6001600160c01b03198816600090815260c9602052604090205415610d675760405162461bcd60e51b815260206004820152600f60248201527f494420616c72656164792075736564000000000000000000000000000000000060448201526064016105bf565b6000610df382610ded8b8b8b8b8b8b8b604051602001610d8d9796959493929190612c5e565b60408051601f1981840301815282825280516020918201207f19457468657265756d205369676e6564204d6573736167653a0a33320000000084830152603c8085019190915282518085039091018152605c909301909152815191012090565b90611d2b565b90506001600160a01b038116610e4b5760405162461bcd60e51b815260206004820152601160248201527f496e76616c6964207369676e617475726500000000000000000000000000000060448201526064016105bf565b6001600160a01b0381163314610ea35760405162461bcd60e51b815260206004820152601160248201527f496e76616c6964207369676e617475726500000000000000000000000000000060448201526064016105bf565b60408051610120810182526001600160c01b03198b1681526001600160f01b03198a166020808301919091528183018a905263ffffffff89166060830152608082018890526001600160a01b03841660a0830152825160008082529181019093529160c08201908152602001868152602001856001811115610f2757610f27612b5b565b905260cf5463ffffffff16600090815260cb6020908152604091829020835181549285015160f01c680100000000000000000269ffffffffffffffffffff1990931660c09190911c179190911781559082015191925082916001820190610f8e9082612d9f565b50606082015160028201805463ffffffff191663ffffffff9092169190911790556080820151600382015560a08201516004820180546001600160a01b0319166001600160a01b0390921691909117905560c08201518051610ffa91600584019160209091019061259c565b5060e0820151805161101691600684019160209091019061259c565b5061010082015160078201805460ff19166001838181111561103a5761103a612b5b565b021790555090505060cc6000836001600160a01b03166001600160a01b0316815260200190815260200160002060cf60009054906101000a900463ffffffff1690806001815401808255809150506001900390600052602060002090600891828204019190066004029091909190916101000a81548163ffffffff021916908363ffffffff16021790555060cf60009054906101000a900463ffffffff1663ffffffff1660c960008c77ffffffffffffffffffffffffffffffffffffffffffffffff191677ffffffffffffffffffffffffffffffffffffffffffffffff19168152602001908152602001600020819055507f3789b65885b83845e9f735d9217d63e0d52d7d8aba95f35eab8a15a42b1e895360cf60009054906101000a900463ffffffff168a8a8a8a8760405161117696959493929190612e5f565b60405180910390a160cf805463ffffffff1690600061119483612eb2565b91906101000a81548163ffffffff021916908363ffffffff1602179055505050505050505050505050565b6001600160a01b038116600090815260cc6020908152604091829020805483518184028101840190945280845260609392830182828015610547576000918252602091829020805463ffffffff16845290820283019290916004910180841161050a575094979650505050505050565b611237611d4f565b6112416000611da9565b565b600054610100900460ff16158080156112635750600054600160ff909116105b8061127d5750303b15801561127d575060005460ff166001145b6112ef5760405162461bcd60e51b815260206004820152602e60248201527f496e697469616c697a61626c653a20636f6e747261637420697320616c72656160448201527f647920696e697469616c697a656400000000000000000000000000000000000060648201526084016105bf565b6000805460ff191660011790558015611312576000805461ff0019166101001790555b60cf805467ffffffffffffffff1916640100000001179055611332611dfb565b61133a611e6e565b8015610974576000805461ff0019169055604051600181527f7f26b83ff96e1f2b6a682f133852f6798a09c465da95921460cefb3847402498906020015b60405180910390a150565b63ffffffff8116600090815260cb6020908152604091829020600501805483518184028101840190945280845260609392830182828015610547576000918252602091829020805463ffffffff16845290820283019290916004910180841161050a575094979650505050505050565b60cb602052600090815260409020805460018201805460c083901b936801000000000000000090930460f01b92919061142b90612d17565b80601f016020809104026020016040519081016040528092919081815260200182805461145790612d17565b80156114a45780601f10611479576101008083540402835291602001916114a4565b820191906000526020600020905b81548152906001019060200180831161148757829003601f168201915b505050600284015460038501546004860154600790960154949563ffffffff909216949093506001600160a01b03909116915060ff1687565b63ffffffff8216600090815260cb602052604090206004015482906001600160a01b0316331461154f5760405162461bcd60e51b815260206004820152601e60248201527f4f6e6c79206f776e65722063616e20617574686f72697a65207573657273000060448201526064016105bf565b60005b8251811015610ac95763ffffffff8416600090815260ce602052604081208451829086908590811061158657611586612bf4565b60200260200101516001600160a01b03166001600160a01b0316815260200190815260200160002060006101000a81548160ff0219169083151502179055508281815181106115d7576115d7612bf4565b60200260200101516001600160a01b03168463ffffffff167f401e9ce95c53a4bfcb691ca7968f364e172354257dbb2ab9f9b588834212f84c60405160405180910390a38061162581612c20565b915050611552565b611635611d4f565b63ffffffff8116600090815260cb60205260409020600401546001600160a01b03166116a35760405162461bcd60e51b815260206004820152601960248201527f476f6c6420626c6f636b20646f6573206e6f742065786973740000000000000060448201526064016105bf565b6116ac81611ed9565b63ffffffff8116600090815260cb60205260408120805469ffffffffffffffffffff19168155906116e0600183018261264b565b60028201805463ffffffff191690556000600383018190556004830180546001600160a01b0319169055611718906005840190612685565b611726600683016000612685565b50600701805460ff1916905560405163ffffffff821681527f0e49e60e26a0d47b015756fa57bb554a4e36b2b04d977edc8e5998f46b2613d390602001611378565b63ffffffff8116600090815260cb6020908152604091829020600601805483518184028101840190945280845260609392830182828015610547576000918252602091829020805463ffffffff16845290820283019290916004910180841161050a575094979650505050505050565b6117e0611d4f565b6001600160a01b03811661185c5760405162461bcd60e51b815260206004820152602660248201527f4f776e61626c653a206e6577206f776e657220697320746865207a65726f206160448201527f646472657373000000000000000000000000000000000000000000000000000060648201526084016105bf565b61097481611da9565b60606000805b84518163ffffffff1610156118cc578363ffffffff16858263ffffffff168151811061189957611899612bf4565b602002602001015163ffffffff16146118ba57816118b681612eb2565b9250505b806118c481612eb2565b91505061186b565b5060008163ffffffff1667ffffffffffffffff8111156118ee576118ee6127e6565b604051908082528060200260200182016040528015611917578160200160208202803683370190505b5090506000805b86518163ffffffff1610156119cc578563ffffffff16878263ffffffff168151811061194c5761194c612bf4565b602002602001015163ffffffff16146119ba57868163ffffffff168151811061197757611977612bf4565b6020026020010151838363ffffffff168151811061199757611997612bf4565b63ffffffff90921660209283029190910190910152816119b681612eb2565b9250505b806119c481612eb2565b91505061191e565b5090925050505b92915050565b604080516080810182526001600160a01b038085168252838116602080840191825263ffffffff8089168587018181524260608801818152600093845260cb865289842060cf805460059092018054600181810183559188528988206008820401805460079092166004026101000a640100000000958690048b168102908b021990921691909117905581548390048816875260ca909852948b90208a518154908b166001600160a01b03199091161781559751968801805494518716600160a01b026001600160c01b0319909516979099169690961792909217909655516002909401939093559154945193947f5f6691791e2b4d688c51e354745bde3d6241c32436450235df6ccba1adbaea8194611b339492909104909216918891889188919063ffffffff95861681529390941660208401526001600160a01b039182166040840152166060820152608081019190915260a00190565b60405180910390a160cf8054640100000000900463ffffffff16906004611b5983612eb2565b91906101000a81548163ffffffff021916908363ffffffff1602179055505050505050565b610974611d4f565b7f4910fdfa16fed3260ed0e7147f7cc6da11a60208b5b9406d12a635614ffd91435460ff1615611bbe57611bb983612063565b505050565b826001600160a01b03166352d1902d6040518163ffffffff1660e01b8152600401602060405180830381865afa925050508015611c18575060408051601f3d908101601f19168201909252611c1591810190612ed5565b60015b611c8a5760405162461bcd60e51b815260206004820152602e60248201527f45524331393637557067726164653a206e657720696d706c656d656e7461746960448201527f6f6e206973206e6f74205555505300000000000000000000000000000000000060648201526084016105bf565b7f360894a13ba1a3210667c828492db98dca3e2076cc3735a920a3ca505d382bbc8114611d1f5760405162461bcd60e51b815260206004820152602960248201527f45524331393637557067726164653a20756e737570706f727465642070726f7860448201527f6961626c6555554944000000000000000000000000000000000000000000000060648201526084016105bf565b50611bb9838383612121565b6000806000611d3a8585612146565b91509150611d478161218b565b509392505050565b6097546001600160a01b031633146112415760405162461bcd60e51b815260206004820181905260248201527f4f776e61626c653a2063616c6c6572206973206e6f7420746865206f776e657260448201526064016105bf565b609780546001600160a01b038381166001600160a01b0319831681179093556040519116919082907f8be0079c531659141344cd1fd0a4f28419497f9722a3daafe3b4186f6b6457e090600090a35050565b600054610100900460ff16611e665760405162461bcd60e51b815260206004820152602b60248201527f496e697469616c697a61626c653a20636f6e7472616374206973206e6f74206960448201526a6e697469616c697a696e6760a81b60648201526084016105bf565b6112416122d5565b600054610100900460ff166112415760405162461bcd60e51b815260206004820152602b60248201527f496e697469616c697a61626c653a20636f6e7472616374206973206e6f74206960448201526a6e697469616c697a696e6760a81b60648201526084016105bf565b63ffffffff8116600090815260cb60209081526040808320600401546001600160a01b031680845260cc909252822090915b815463ffffffff82161015610ac9578363ffffffff16828263ffffffff1681548110611f3957611f39612bf4565b6000918252602090912060088204015460079091166004026101000a900463ffffffff1603612051578154611f7090600190612eee565b8163ffffffff161461200e5781548290611f8c90600190612eee565b81548110611f9c57611f9c612bf4565b90600052602060002090600891828204019190066004029054906101000a900463ffffffff16828263ffffffff1681548110611fda57611fda612bf4565b90600052602060002090600891828204019190066004026101000a81548163ffffffff021916908363ffffffff1602179055505b8180548061201e5761201e612f01565b600082815260209020600860001990920191820401805463ffffffff600460078516026101000a02191690559055610ac9565b8061205b81612eb2565b915050611f0b565b6001600160a01b0381163b6120e05760405162461bcd60e51b815260206004820152602d60248201527f455243313936373a206e657720696d706c656d656e746174696f6e206973206e60448201527f6f74206120636f6e74726163740000000000000000000000000000000000000060648201526084016105bf565b7f360894a13ba1a3210667c828492db98dca3e2076cc3735a920a3ca505d382bbc80546001600160a01b0319166001600160a01b0392909216919091179055565b61212a83612349565b6000825111806121375750805b15611bb957610ac98383612389565b600080825160410361217c5760208301516040840151606085015160001a612170878285856123b5565b94509450505050612184565b506000905060025b9250929050565b600081600481111561219f5761219f612b5b565b036121a75750565b60018160048111156121bb576121bb612b5b565b036122085760405162461bcd60e51b815260206004820152601860248201527f45434453413a20696e76616c6964207369676e6174757265000000000000000060448201526064016105bf565b600281600481111561221c5761221c612b5b565b036122695760405162461bcd60e51b815260206004820152601f60248201527f45434453413a20696e76616c6964207369676e6174757265206c656e6774680060448201526064016105bf565b600381600481111561227d5761227d612b5b565b036109745760405162461bcd60e51b815260206004820152602260248201527f45434453413a20696e76616c6964207369676e6174757265202773272076616c604482015261756560f01b60648201526084016105bf565b600054610100900460ff166123405760405162461bcd60e51b815260206004820152602b60248201527f496e697469616c697a61626c653a20636f6e7472616374206973206e6f74206960448201526a6e697469616c697a696e6760a81b60648201526084016105bf565b61124133611da9565b61235281612063565b6040516001600160a01b038216907fbc7cd75a20ee27fd9adebab32041f755214dbc6bffa90cc0225b39da2e5c2d3b90600090a250565b60606123ae8383604051806060016040528060278152602001612f3460279139612479565b9392505050565b6000807f7fffffffffffffffffffffffffffffff5d576e7357a4501ddfe92f46681b20a08311156123ec5750600090506003612470565b6040805160008082526020820180845289905260ff881692820192909252606081018690526080810185905260019060a0016020604051602081039080840390855afa158015612440573d6000803e3d6000fd5b5050604051601f1901519150506001600160a01b03811661246957600060019250925050612470565b9150600090505b94509492505050565b6060600080856001600160a01b0316856040516124969190612f17565b600060405180830381855af49150503d80600081146124d1576040519150601f19603f3d011682016040523d82523d6000602084013e6124d6565b606091505b50915091506124e7868383876124f1565b9695505050505050565b60608315612560578251600003612559576001600160a01b0385163b6125595760405162461bcd60e51b815260206004820152601d60248201527f416464726573733a2063616c6c20746f206e6f6e2d636f6e747261637400000060448201526064016105bf565b508161256a565b61256a8383612572565b949350505050565b8151156125825781518083602001fd5b8060405162461bcd60e51b81526004016105bf919061278c565b8280548282559060005260206000209060070160089004810192821561263b5791602002820160005b8382111561260957835183826101000a81548163ffffffff021916908363ffffffff16021790555092602001926004016020816003010492830192600103026125c5565b80156126395782816101000a81549063ffffffff0219169055600401602081600301049283019260010302612609565b505b506126479291506126a6565b5090565b50805461265790612d17565b6000825580601f10612667575050565b601f01602090049060005260206000209081019061097491906126a6565b50805460008255600701600890049060005260206000209081019061097491905b5b8082111561264757600081556001016126a7565b80356001600160a01b03811681146126d257600080fd5b919050565b6000602082840312156126e957600080fd5b6123ae826126bb565b6020808252825182820181905260009190848201906040850190845b8181101561273057835163ffffffff168352928401929184019160010161270e565b50909695505050505050565b60005b8381101561275757818101518382015260200161273f565b50506000910152565b6000815180845261277881602086016020860161273c565b601f01601f19169290920160200192915050565b6020815260006123ae6020830184612760565b803563ffffffff811681146126d257600080fd5b600080604083850312156127c657600080fd5b6127cf8361279f565b91506127dd602084016126bb565b90509250929050565b634e487b7160e01b600052604160045260246000fd5b604051601f8201601f1916810167ffffffffffffffff81118282101715612825576128256127e6565b604052919050565b600067ffffffffffffffff821115612847576128476127e6565b5060051b60200190565b6000806040838503121561286457600080fd5b61286d8361279f565b915060208084013567ffffffffffffffff81111561288a57600080fd5b8401601f8101861361289b57600080fd5b80356128ae6128a98261282d565b6127fc565b81815260059190911b820183019083810190888311156128cd57600080fd5b928401925b828410156128f2576128e3846126bb565b825292840192908401906128d2565b80955050505050509250929050565b600082601f83011261291257600080fd5b813567ffffffffffffffff81111561292c5761292c6127e6565b61293f601f8201601f19166020016127fc565b81815284602083860101111561295457600080fd5b816020850160208301376000918101602001919091529392505050565b6000806040838503121561298457600080fd5b61298d836126bb565b9150602083013567ffffffffffffffff8111156129a957600080fd5b6129b585828601612901565b9150509250929050565b80356001600160c01b0319811681146126d257600080fd5b80356001600160f01b0319811681146126d257600080fd5b600082601f830112612a0057600080fd5b81356020612a106128a98361282d565b82815260059290921b84018101918181019086841115612a2f57600080fd5b8286015b84811015612a5157612a448161279f565b8352918301918301612a33565b509695505050505050565b8035600281106126d257600080fd5b600080600080600080600080610100898b031215612a8857600080fd5b612a91896129bf565b9750612a9f60208a016129d7565b9650604089013567ffffffffffffffff80821115612abc57600080fd5b612ac88c838d01612901565b9750612ad660608c0161279f565b965060808b0135955060a08b0135915080821115612af357600080fd5b612aff8c838d016129ef565b9450612b0d60c08c01612a5c565b935060e08b0135915080821115612b2357600080fd5b50612b308b828c01612901565b9150509295985092959890939650565b600060208284031215612b5257600080fd5b6123ae8261279f565b634e487b7160e01b600052602160045260246000fd5b6001600160c01b03198816815261ffff60f01b8716602082015260e060408201526000612ba160e0830188612760565b905063ffffffff861660608301528460808301526001600160a01b03841660a083015260028310612be257634e487b7160e01b600052602160045260246000fd5b8260c083015298975050505050505050565b634e487b7160e01b600052603260045260246000fd5b634e487b7160e01b600052601160045260246000fd5b600060018201612c3257612c32612c0a565b5060010190565b60028110612c5757634e487b7160e01b600052602160045260246000fd5b60f81b9052565b6001600160c01b0319881681526001600160f01b03198716600882015285516000906020612c9282600a8601838c0161273c565b60e088901b7fffffffff0000000000000000000000000000000000000000000000000000000016600a92850192830152600e82018790528551602e9092019181870160005b82811015612cf957815163ffffffff1685529383019390830190600101612cd7565b50505050612d078185612c39565b6001019998505050505050505050565b600181811c90821680612d2b57607f821691505b602082108103612d4b57634e487b7160e01b600052602260045260246000fd5b50919050565b601f821115611bb957600081815260208120601f850160051c81016020861015612d785750805b601f850160051c820191505b81811015612d9757828155600101612d84565b505050505050565b815167ffffffffffffffff811115612db957612db96127e6565b612dcd81612dc78454612d17565b84612d51565b602080601f831160018114612e025760008415612dea5750858301515b600019600386901b1c1916600185901b178555612d97565b600085815260208120601f198616915b82811015612e3157888601518255948401946001909101908401612e12565b5085821015612e4f5787850151600019600388901b60f8161c191681555b5050505050600190811b01905550565b600063ffffffff808916835261ffff60f01b8816602084015260c06040840152612e8c60c0840188612760565b951660608301525060808101929092526001600160a01b031660a0909101529392505050565b600063ffffffff808316818103612ecb57612ecb612c0a565b6001019392505050565b600060208284031215612ee757600080fd5b5051919050565b818103818111156119d3576119d3612c0a565b634e487b7160e01b600052603160045260246000fd5b60008251612f2981846020870161273c565b919091019291505056fe416464726573733a206c6f772d6c6576656c2064656c65676174652063616c6c206661696c6564a164736f6c6343000811000a",
  "linkReferences": {},
  "deployedLinkReferences": {}
}