{
  "_format": "hh-sol-artifact-1",
  "contractName": "GoldTraceability",
  "sourceName": "contracts/GoldTraceability.sol",
  "abi": [
    {
      "anonymous": false,
      "inputs": [
        {
          "indexed": true,
          "internalType": "uint256",
          "name": "blockId",
          "type": "uint256"
        },
        {
          "indexed": true,
          "internalType": "address",
          "name": "user",
          "type": "address"
        }
      ],
      "name": "AuthorizationRevoked",
      "type": "event"
    },
    {
      "anonymous": false,
      "inputs": [
        {
          "indexed": false,
          "internalType": "uint32",
          "name": "blockId",
          "type": "uint32"
        },
        {
          "indexed": false,
          "internalType": "bytes2",
          "name": "producer",
          "type": "bytes2"
        },
        {
          "indexed": false,
          "internalType": "bytes",
          "name": "location",
          "type": "bytes"
        },
        {
          "indexed": false,
          "internalType": "uint256",
          "name": "weight",
          "type": "uint256"
        },
        {
          "indexed": false,
          "internalType": "uint256",
          "name": "timestamp",
          "type": "uint256"
        },
        {
          "indexed": false,
          "internalType": "address",
          "name": "owner",
          "type": "address"
        }
      ],
      "name": "GoldBlockCreated",
      "type": "event"
    },
    {
      "anonymous": false,
      "inputs": [
        {
          "indexed": false,
          "internalType": "uint256",
          "name": "blockId",
          "type": "uint256"
        }
      ],
      "name": "GoldBlockDestroyed",
      "type": "event"
    },
    {
      "anonymous": false,
      "inputs": [
        {
          "indexed": false,
          "internalType": "uint256",
          "name": "blockId",
          "type": "uint256"
        },
        {
          "indexed": false,
          "internalType": "address",
          "name": "from",
          "type": "address"
        },
        {
          "indexed": false,
          "internalType": "address",
          "name": "to",
          "type": "address"
        },
        {
          "indexed": false,
          "internalType": "uint256",
          "name": "timestamp",
          "type": "uint256"
        }
      ],
      "name": "GoldBlockTransferred",
      "type": "event"
    },
    {
      "anonymous": false,
      "inputs": [
        {
          "indexed": false,
          "internalType": "uint8",
          "name": "version",
          "type": "uint8"
        }
      ],
      "name": "Initialized",
      "type": "event"
    },
    {
      "anonymous": false,
      "inputs": [
        {
          "indexed": true,
          "internalType": "address",
          "name": "previousOwner",
          "type": "address"
        },
        {
          "indexed": true,
          "internalType": "address",
          "name": "newOwner",
          "type": "address"
        }
      ],
      "name": "OwnershipTransferred",
      "type": "event"
    },
    {
      "anonymous": false,
      "inputs": [
        {
          "indexed": false,
          "internalType": "uint256",
          "name": "transactionId",
          "type": "uint256"
        },
        {
          "indexed": false,
          "internalType": "uint256",
          "name": "blockId",
          "type": "uint256"
        },
        {
          "indexed": false,
          "internalType": "address",
          "name": "from",
          "type": "address"
        },
        {
          "indexed": false,
          "internalType": "address",
          "name": "to",
          "type": "address"
        },
        {
          "indexed": false,
          "internalType": "uint256",
          "name": "timestamp",
          "type": "uint256"
        }
      ],
      "name": "TransactionCreated",
      "type": "event"
    },
    {
      "anonymous": false,
      "inputs": [
        {
          "indexed": true,
          "internalType": "uint256",
          "name": "blockId",
          "type": "uint256"
        },
        {
          "indexed": true,
          "internalType": "address",
          "name": "user",
          "type": "address"
        }
      ],
      "name": "UserAuthorized",
      "type": "event"
    },
    {
      "inputs": [
        {
          "internalType": "uint32",
          "name": "",
          "type": "uint32"
        },
        {
          "internalType": "address",
          "name": "",
          "type": "address"
        }
      ],
      "name": "authorizedUsers",
      "outputs": [
        {
          "internalType": "bool",
          "name": "",
          "type": "bool"
        }
      ],
      "stateMutability": "view",
      "type": "function"
    },
    {
      "inputs": [
        {
          "internalType": "bytes8",
          "name": "id",
          "type": "bytes8"
        },
        {
          "internalType": "bytes2",
          "name": "producer",
          "type": "bytes2"
        },
        {
          "internalType": "bytes",
          "name": "location",
          "type": "bytes"
        },
        {
          "internalType": "uint32",
          "name": "weight",
          "type": "uint32"
        },
        {
          "internalType": "uint256",
          "name": "timestamp",
          "type": "uint256"
        },
        {
          "internalType": "uint32[]",
          "name": "parentIds",
          "type": "uint32[]"
        },
        {
          "internalType": "enum GoldTraceability.GoldType",
          "name": "goldType",
          "type": "uint8"
        },
        {
          "internalType": "bytes",
          "name": "signature",
          "type": "bytes"
        }
      ],
      "name": "createGoldBlock",
      "outputs": [],
      "stateMutability": "nonpayable",
      "type": "function"
    },
    {
      "inputs": [
        {
          "internalType": "uint32",
          "name": "blockId",
          "type": "uint32"
        }
      ],
      "name": "destroyGoldBlock",
      "outputs": [],
      "stateMutability": "nonpayable",
      "type": "function"
    },
    {
      "inputs": [
        {
          "internalType": "address",
          "name": "owner",
          "type": "address"
        }
      ],
      "name": "getGoldBlocksByOwner",
      "outputs": [
        {
          "internalType": "uint32[]",
          "name": "",
          "type": "uint32[]"
        }
      ],
      "stateMutability": "view",
      "type": "function"
    },
    {
      "inputs": [
        {
          "internalType": "uint32",
          "name": "blockId",
          "type": "uint32"
        }
      ],
      "name": "getParentIds",
      "outputs": [
        {
          "internalType": "uint32[]",
          "name": "",
          "type": "uint32[]"
        }
      ],
      "stateMutability": "view",
      "type": "function"
    },
    {
      "inputs": [
        {
          "internalType": "uint32",
          "name": "blockId",
          "type": "uint32"
        }
      ],
      "name": "getTransactionIds",
      "outputs": [
        {
          "internalType": "uint32[]",
          "name": "",
          "type": "uint32[]"
        }
      ],
      "stateMutability": "view",
      "type": "function"
    },
    {
      "inputs": [
        {
          "internalType": "address",
          "name": "addr",
          "type": "address"
        }
      ],
      "name": "getTransactionsByAddress",
      "outputs": [
        {
          "internalType": "uint32[]",
          "name": "",
          "type": "uint32[]"
        }
      ],
      "stateMutability": "view",
      "type": "function"
    },
    {
      "inputs": [],
      "name": "getVersion",
      "outputs": [
        {
          "internalType": "string",
          "name": "",
          "type": "string"
        }
      ],
      "stateMutability": "pure",
      "type": "function"
    },
    {
      "inputs": [
        {
          "internalType": "uint32",
          "name": "",
          "type": "uint32"
        }
      ],
      "name": "goldBlocks",
      "outputs": [
        {
          "internalType": "bytes8",
          "name": "id",
          "type": "bytes8"
        },
        {
          "internalType": "bytes2",
          "name": "producer",
          "type": "bytes2"
        },
        {
          "internalType": "bytes",
          "name": "location",
          "type": "bytes"
        },
        {
          "internalType": "uint32",
          "name": "weight",
          "type": "uint32"
        },
        {
          "internalType": "uint256",
          "name": "timestamp",
          "type": "uint256"
        },
        {
          "internalType": "address",
          "name": "owner",
          "type": "address"
        },
        {
          "internalType": "enum GoldTraceability.GoldType",
          "name": "goldType",
          "type": "uint8"
        }
      ],
      "stateMutability": "view",
      "type": "function"
    },
    {
      "inputs": [
        {
          "internalType": "uint32",
          "name": "blockId",
          "type": "uint32"
        },
        {
          "internalType": "address[]",
          "name": "users",
          "type": "address[]"
        }
      ],
      "name": "grantAccess",
      "outputs": [],
      "stateMutability": "nonpayable",
      "type": "function"
    },
    {
      "inputs": [],
      "name": "initialize",
      "outputs": [],
      "stateMutability": "nonpayable",
      "type": "function"
    },
    {
      "inputs": [],
      "name": "owner",
      "outputs": [
        {
          "internalType": "address",
          "name": "",
          "type": "address"
        }
      ],
      "stateMutability": "view",
      "type": "function"
    },
    {
      "inputs": [],
      "name": "renounceOwnership",
      "outputs": [],
      "stateMutability": "nonpayable",
      "type": "function"
    },
    {
      "inputs": [
        {
          "internalType": "uint32",
          "name": "blockId",
          "type": "uint32"
        },
        {
          "internalType": "address[]",
          "name": "users",
          "type": "address[]"
        }
      ],
      "name": "revokeAuthorization",
      "outputs": [],
      "stateMutability": "nonpayable",
      "type": "function"
    },
    {
      "inputs": [
        {
          "internalType": "uint32",
          "name": "",
          "type": "uint32"
        }
      ],
      "name": "transactions",
      "outputs": [
        {
          "internalType": "address",
          "name": "from",
          "type": "address"
        },
        {
          "internalType": "address",
          "name": "to",
          "type": "address"
        },
        {
          "internalType": "uint32",
          "name": "blockId",
          "type": "uint32"
        },
        {
          "internalType": "uint256",
          "name": "timestamp",
          "type": "uint256"
        }
      ],
      "stateMutability": "view",
      "type": "function"
    },
    {
      "inputs": [
        {
          "internalType": "uint32",
          "name": "blockId",
          "type": "uint32"
        },
        {
          "internalType": "address",
          "name": "to",
          "type": "address"
        }
      ],
      "name": "transferGoldBlock",
      "outputs": [],
      "stateMutability": "nonpayable",
      "type": "function"
    },
    {
      "inputs": [
        {
          "internalType": "address",
          "name": "newOwner",
          "type": "address"
        }
      ],
      "name": "transferOwnership",
      "outputs": [],
      "stateMutability": "nonpayable",
      "type": "function"
    }
  ],
  "bytecode": "0x608060405234801561001057600080fd5b50612422806100206000396000f3fe608060405234801561001057600080fd5b506004361061011b5760003560e01c80638129fc1c116100b2578063bb08bdd311610081578063d852eb0011610066578063d852eb001461030b578063dfd1cfe11461031e578063f2fde38b1461033157600080fd5b8063bb08bdd314610278578063bd0059751461028b57600080fd5b80638129fc1c1461021c5780638da5cb5b1461022457806390aae4551461023f578063a3744b201461025257600080fd5b80636081fa8f116100ee5780636081fa8f146101b057806363b3eac2146101ee5780636e56c53214610201578063715018a61461021457600080fd5b80630947b4dc146101205780630d8e6e2c1461014957806322996aa1146101885780633c0cc4981461019d575b600080fd5b61013361012e366004611c34565b610344565b6040516101409190611c56565b60405180910390f35b604080518082018252600681527f76312e302e300000000000000000000000000000000000000000000000000000602082015290516101409190611cf0565b61019b610196366004611d17565b6103dc565b005b61019b6101ab366004611db5565b610685565b6101de6101be366004611d17565b606a60209081526000928352604080842090915290825290205460ff1681565b6040519015158152602001610140565b61019b6101fc366004611f81565b6107dd565b61013361020f366004611c34565b610c9c565b61019b610d0c565b61019b610d20565b6033546040516001600160a01b039091168152602001610140565b61013361024d366004612056565b610e51565b610265610260366004612056565b610ec1565b6040516101409796959493929190612087565b61019b610286366004611db5565b610fab565b6102d5610299366004612056565b6066602052600090815260409020805460018201546002909201546001600160a01b039182169291821691600160a01b900463ffffffff169084565b604080516001600160a01b03958616815294909316602085015263ffffffff909116918301919091526060820152608001610140565b61019b610319366004612056565b6110fb565b61013361032c366004612056565b611236565b61019b61033f366004611c34565b6112a6565b6001600160a01b0381166000908152606960209081526040918290208054835181840281018401909452808452606093928301828280156103d057602002820191906000526020600020906000905b82829054906101000a900463ffffffff1663ffffffff16815260200190600401906020826003010492830192600103820291508084116103935790505b50505050509050919050565b63ffffffff821660009081526067602052604090206004015482906001600160a01b03166104515760405162461bcd60e51b815260206004820152601960248201527f476f6c6420626c6f636b20646f6573206e6f742065786973740000000000000060448201526064015b60405180910390fd5b63ffffffff831660009081526067602052604090206004015483906001600160a01b03163314806104a2575063ffffffff81166000908152606a6020908152604080832033845290915290205460ff165b6104ee5760405162461bcd60e51b815260206004820152600e60248201527f4e6f7420617574686f72697a65640000000000000000000000000000000000006044820152606401610448565b63ffffffff8481166000818152606760209081526040808320600490810180546001600160a01b031981166001600160a01b038c811691821790935586526068855283862080546001810182559087528587206008820401805460079092169094026101000a988902191697909602969096179055939092168082528382208054855181860281018601909652808652919492939091908301828280156105e057602002820191906000526020600020906000905b82829054906101000a900463ffffffff1663ffffffff16815260200190600401906020826003010492830192600103820291508084116105a35790505b505050505090506105f18187611333565b6001600160a01b0383166000908152606860209081526040909120825161061e9391929190910190611af9565b5061062a8683876114a7565b6040805163ffffffff881681523360208201526001600160a01b0387168183015242606082015290517f4a19f7037de5f58b97e82d2c8a55ea5babd1b35073a969ea4287796b2f6300679181900360800190a1505050505050565b63ffffffff821660009081526067602052604090206004015482906001600160a01b031633146106f75760405162461bcd60e51b815260206004820152601e60248201527f4f6e6c79206f776e65722063616e20617574686f72697a6520757365727300006044820152606401610448565b60005b82518110156107d75763ffffffff84166000908152606a602052604081208451600192908690859081106107305761073061210a565b60200260200101516001600160a01b03166001600160a01b0316815260200190815260200160002060006101000a81548160ff0219169083151502179055508281815181106107815761078161210a565b60200260200101516001600160a01b03168463ffffffff167f4eebcb0f1bbb6d724ee065a3c0c8445b72ac42c3be3539b2abf744a5ae7ec07e60405160405180910390a3806107cf81612136565b9150506106fa565b50505050565b6001600160c01b03198816600090815260656020526040902054156108445760405162461bcd60e51b815260206004820152600f60248201527f494420616c7265616479207573656400000000000000000000000000000000006044820152606401610448565b60006108d0826108ca8b8b8b8b8b8b8b60405160200161086a9796959493929190612174565b60408051601f1981840301815282825280516020918201207f19457468657265756d205369676e6564204d6573736167653a0a33320000000084830152603c8085019190915282518085039091018152605c909301909152815191012090565b9061164c565b90506001600160a01b0381166109285760405162461bcd60e51b815260206004820152601160248201527f496e76616c6964207369676e61747572650000000000000000000000000000006044820152606401610448565b6001600160a01b03811633146109805760405162461bcd60e51b815260206004820152601160248201527f496e76616c6964207369676e61747572650000000000000000000000000000006044820152606401610448565b60408051610120810182526001600160c01b03198b1681526001600160f01b03198a166020808301919091528183018a905263ffffffff89166060830152608082018890526001600160a01b03841660a0830152825160008082529181019093529160c08201908152602001868152602001856001811115610a0457610a04612071565b9052606b5463ffffffff16600090815260676020908152604091829020835181549285015160f01c680100000000000000000269ffffffffffffffffffff1990931660c09190911c179190911781559082015191925082916001820190610a6b90826122b6565b50606082015160028201805463ffffffff191663ffffffff9092169190911790556080820151600382015560a08201516004820180546001600160a01b0319166001600160a01b0390921691909117905560c08201518051610ad7916005840191602090910190611af9565b5060e08201518051610af3916006840191602090910190611af9565b5061010082015160078201805460ff191660018381811115610b1757610b17612071565b021790555090505060686000836001600160a01b03166001600160a01b03168152602001908152602001600020606b60009054906101000a900463ffffffff1690806001815401808255809150506001900390600052602060002090600891828204019190066004029091909190916101000a81548163ffffffff021916908363ffffffff160217905550606b60009054906101000a900463ffffffff1663ffffffff16606560008c77ffffffffffffffffffffffffffffffffffffffffffffffff191677ffffffffffffffffffffffffffffffffffffffffffffffff19168152602001908152602001600020819055507f3789b65885b83845e9f735d9217d63e0d52d7d8aba95f35eab8a15a42b1e8953606b60009054906101000a900463ffffffff168a8a8a8a87604051610c5396959493929190612376565b60405180910390a1606b805463ffffffff16906000610c71836123c9565b91906101000a81548163ffffffff021916908363ffffffff1602179055505050505050505050505050565b6001600160a01b0381166000908152606860209081526040918290208054835181840281018401909452808452606093928301828280156103d0576000918252602091829020805463ffffffff168452908202830192909160049101808411610393575094979650505050505050565b610d14611670565b610d1e60006116ca565b565b600054610100900460ff1615808015610d405750600054600160ff909116105b80610d5a5750303b158015610d5a575060005460ff166001145b610dcc5760405162461bcd60e51b815260206004820152602e60248201527f496e697469616c697a61626c653a20636f6e747261637420697320616c72656160448201527f647920696e697469616c697a65640000000000000000000000000000000000006064820152608401610448565b6000805460ff191660011790558015610def576000805461ff0019166101001790555b606b805467ffffffffffffffff19166401000000011790558015610e4e576000805461ff0019169055604051600181527f7f26b83ff96e1f2b6a682f133852f6798a09c465da95921460cefb3847402498906020015b60405180910390a15b50565b63ffffffff81166000908152606760209081526040918290206005018054835181840281018401909452808452606093928301828280156103d0576000918252602091829020805463ffffffff168452908202830192909160049101808411610393575094979650505050505050565b6067602052600090815260409020805460018201805460c083901b936801000000000000000090930460f01b929190610ef99061222d565b80601f0160208091040260200160405190810160405280929190818152602001828054610f259061222d565b8015610f725780601f10610f4757610100808354040283529160200191610f72565b820191906000526020600020905b815481529060010190602001808311610f5557829003601f168201915b505050600284015460038501546004860154600790960154949563ffffffff909216949093506001600160a01b03909116915060ff1687565b63ffffffff821660009081526067602052604090206004015482906001600160a01b0316331461101d5760405162461bcd60e51b815260206004820152601e60248201527f4f6e6c79206f776e65722063616e20617574686f72697a6520757365727300006044820152606401610448565b60005b82518110156107d75763ffffffff84166000908152606a60205260408120845182908690859081106110545761105461210a565b60200260200101516001600160a01b03166001600160a01b0316815260200190815260200160002060006101000a81548160ff0219169083151502179055508281815181106110a5576110a561210a565b60200260200101516001600160a01b03168463ffffffff167f401e9ce95c53a4bfcb691ca7968f364e172354257dbb2ab9f9b588834212f84c60405160405180910390a3806110f381612136565b915050611020565b611103611670565b63ffffffff81166000908152606760205260409020600401546001600160a01b03166111715760405162461bcd60e51b815260206004820152601960248201527f476f6c6420626c6f636b20646f6573206e6f74206578697374000000000000006044820152606401610448565b61117a8161171c565b63ffffffff81166000908152606760205260408120805469ffffffffffffffffffff19168155906111ae6001830182611ba8565b60028201805463ffffffff191690556000600383018190556004830180546001600160a01b03191690556111e6906005840190611be2565b6111f4600683016000611be2565b50600701805460ff1916905560405163ffffffff821681527f0e49e60e26a0d47b015756fa57bb554a4e36b2b04d977edc8e5998f46b2613d390602001610e45565b63ffffffff81166000908152606760209081526040918290206006018054835181840281018401909452808452606093928301828280156103d0576000918252602091829020805463ffffffff168452908202830192909160049101808411610393575094979650505050505050565b6112ae611670565b6001600160a01b03811661132a5760405162461bcd60e51b815260206004820152602660248201527f4f776e61626c653a206e6577206f776e657220697320746865207a65726f206160448201527f64647265737300000000000000000000000000000000000000000000000000006064820152608401610448565b610e4e816116ca565b60606000805b84518163ffffffff16101561139a578363ffffffff16858263ffffffff16815181106113675761136761210a565b602002602001015163ffffffff16146113885781611384816123c9565b9250505b80611392816123c9565b915050611339565b5060008163ffffffff1667ffffffffffffffff8111156113bc576113bc611d4a565b6040519080825280602002602001820160405280156113e5578160200160208202803683370190505b5090506000805b86518163ffffffff16101561149a578563ffffffff16878263ffffffff168151811061141a5761141a61210a565b602002602001015163ffffffff161461148857868163ffffffff16815181106114455761144561210a565b6020026020010151838363ffffffff16815181106114655761146561210a565b63ffffffff9092166020928302919091019091015281611484816123c9565b9250505b80611492816123c9565b9150506113ec565b5090925050505b92915050565b604080516080810182526001600160a01b038085168252838116602080840191825263ffffffff8089168587018181524260608801818152600093845260678652898420606b805460059092018054600181810183559188528988206008820401805460079092166004026101000a640100000000958690048b168102908b02199092169190911790558154839004881687526066909852948b90208a518154908b166001600160a01b03199091161781559751968801805494518716600160a01b026001600160c01b0319909516979099169690961792909217909655516002909401939093559154945193947f5f6691791e2b4d688c51e354745bde3d6241c32436450235df6ccba1adbaea81946116019492909104909216918891889188919063ffffffff95861681529390941660208401526001600160a01b039182166040840152166060820152608081019190915260a00190565b60405180910390a1606b8054640100000000900463ffffffff16906004611627836123c9565b91906101000a81548163ffffffff021916908363ffffffff1602179055505050505050565b600080600061165b85856118a6565b91509150611668816118eb565b509392505050565b6033546001600160a01b03163314610d1e5760405162461bcd60e51b815260206004820181905260248201527f4f776e61626c653a2063616c6c6572206973206e6f7420746865206f776e65726044820152606401610448565b603380546001600160a01b038381166001600160a01b0319831681179093556040519116919082907f8be0079c531659141344cd1fd0a4f28419497f9722a3daafe3b4186f6b6457e090600090a35050565b63ffffffff81166000908152606760209081526040808320600401546001600160a01b03168084526068909252822090915b815463ffffffff821610156107d7578363ffffffff16828263ffffffff168154811061177c5761177c61210a565b6000918252602090912060088204015460079091166004026101000a900463ffffffff16036118945781546117b3906001906123ec565b8163ffffffff161461185157815482906117cf906001906123ec565b815481106117df576117df61210a565b90600052602060002090600891828204019190066004029054906101000a900463ffffffff16828263ffffffff168154811061181d5761181d61210a565b90600052602060002090600891828204019190066004026101000a81548163ffffffff021916908363ffffffff1602179055505b81805480611861576118616123ff565b600082815260209020600860001990920191820401805463ffffffff600460078516026101000a021916905590556107d7565b8061189e816123c9565b91505061174e565b60008082516041036118dc5760208301516040840151606085015160001a6118d087828585611a35565b945094505050506118e4565b506000905060025b9250929050565b60008160048111156118ff576118ff612071565b036119075750565b600181600481111561191b5761191b612071565b036119685760405162461bcd60e51b815260206004820152601860248201527f45434453413a20696e76616c6964207369676e617475726500000000000000006044820152606401610448565b600281600481111561197c5761197c612071565b036119c95760405162461bcd60e51b815260206004820152601f60248201527f45434453413a20696e76616c6964207369676e6174757265206c656e677468006044820152606401610448565b60038160048111156119dd576119dd612071565b03610e4e5760405162461bcd60e51b815260206004820152602260248201527f45434453413a20696e76616c6964207369676e6174757265202773272076616c604482015261756560f01b6064820152608401610448565b6000807f7fffffffffffffffffffffffffffffff5d576e7357a4501ddfe92f46681b20a0831115611a6c5750600090506003611af0565b6040805160008082526020820180845289905260ff881692820192909252606081018690526080810185905260019060a0016020604051602081039080840390855afa158015611ac0573d6000803e3d6000fd5b5050604051601f1901519150506001600160a01b038116611ae957600060019250925050611af0565b9150600090505b94509492505050565b82805482825590600052602060002090600701600890048101928215611b985791602002820160005b83821115611b6657835183826101000a81548163ffffffff021916908363ffffffff1602179055509260200192600401602081600301049283019260010302611b22565b8015611b965782816101000a81549063ffffffff0219169055600401602081600301049283019260010302611b66565b505b50611ba4929150611c03565b5090565b508054611bb49061222d565b6000825580601f10611bc4575050565b601f016020900490600052602060002090810190610e4e9190611c03565b508054600082556007016008900490600052602060002090810190610e4e91905b5b80821115611ba45760008155600101611c04565b80356001600160a01b0381168114611c2f57600080fd5b919050565b600060208284031215611c4657600080fd5b611c4f82611c18565b9392505050565b6020808252825182820181905260009190848201906040850190845b81811015611c9457835163ffffffff1683529284019291840191600101611c72565b50909695505050505050565b60005b83811015611cbb578181015183820152602001611ca3565b50506000910152565b60008151808452611cdc816020860160208601611ca0565b601f01601f19169290920160200192915050565b602081526000611c4f6020830184611cc4565b803563ffffffff81168114611c2f57600080fd5b60008060408385031215611d2a57600080fd5b611d3383611d03565b9150611d4160208401611c18565b90509250929050565b634e487b7160e01b600052604160045260246000fd5b604051601f8201601f1916810167ffffffffffffffff81118282101715611d8957611d89611d4a565b604052919050565b600067ffffffffffffffff821115611dab57611dab611d4a565b5060051b60200190565b60008060408385031215611dc857600080fd5b611dd183611d03565b915060208084013567ffffffffffffffff811115611dee57600080fd5b8401601f81018613611dff57600080fd5b8035611e12611e0d82611d91565b611d60565b81815260059190911b82018301908381019088831115611e3157600080fd5b928401925b82841015611e5657611e4784611c18565b82529284019290840190611e36565b80955050505050509250929050565b80356001600160c01b031981168114611c2f57600080fd5b80356001600160f01b031981168114611c2f57600080fd5b600082601f830112611ea657600080fd5b813567ffffffffffffffff811115611ec057611ec0611d4a565b611ed3601f8201601f1916602001611d60565b818152846020838601011115611ee857600080fd5b816020850160208301376000918101602001919091529392505050565b600082601f830112611f1657600080fd5b81356020611f26611e0d83611d91565b82815260059290921b84018101918181019086841115611f4557600080fd5b8286015b84811015611f6757611f5a81611d03565b8352918301918301611f49565b509695505050505050565b803560028110611c2f57600080fd5b600080600080600080600080610100898b031215611f9e57600080fd5b611fa789611e65565b9750611fb560208a01611e7d565b9650604089013567ffffffffffffffff80821115611fd257600080fd5b611fde8c838d01611e95565b9750611fec60608c01611d03565b965060808b0135955060a08b013591508082111561200957600080fd5b6120158c838d01611f05565b945061202360c08c01611f72565b935060e08b013591508082111561203957600080fd5b506120468b828c01611e95565b9150509295985092959890939650565b60006020828403121561206857600080fd5b611c4f82611d03565b634e487b7160e01b600052602160045260246000fd5b6001600160c01b03198816815261ffff60f01b8716602082015260e0604082015260006120b760e0830188611cc4565b905063ffffffff861660608301528460808301526001600160a01b03841660a0830152600283106120f857634e487b7160e01b600052602160045260246000fd5b8260c083015298975050505050505050565b634e487b7160e01b600052603260045260246000fd5b634e487b7160e01b600052601160045260246000fd5b60006001820161214857612148612120565b5060010190565b6002811061216d57634e487b7160e01b600052602160045260246000fd5b60f81b9052565b6001600160c01b0319881681526001600160f01b031987166008820152855160009060206121a882600a8601838c01611ca0565b60e088901b7fffffffff0000000000000000000000000000000000000000000000000000000016600a92850192830152600e82018790528551602e9092019181870160005b8281101561220f57815163ffffffff16855293830193908301906001016121ed565b5050505061221d818561214f565b6001019998505050505050505050565b600181811c9082168061224157607f821691505b60208210810361226157634e487b7160e01b600052602260045260246000fd5b50919050565b601f8211156122b157600081815260208120601f850160051c8101602086101561228e5750805b601f850160051c820191505b818110156122ad5782815560010161229a565b5050505b505050565b815167ffffffffffffffff8111156122d0576122d0611d4a565b6122e4816122de845461222d565b84612267565b602080601f83116001811461231957600084156123015750858301515b600019600386901b1c1916600185901b1785556122ad565b600085815260208120601f198616915b8281101561234857888601518255948401946001909101908401612329565b50858210156123665787850151600019600388901b60f8161c191681555b5050505050600190811b01905550565b600063ffffffff808916835261ffff60f01b8816602084015260c060408401526123a360c0840188611cc4565b951660608301525060808101929092526001600160a01b031660a0909101529392505050565b600063ffffffff8083168181036123e2576123e2612120565b6001019392505050565b818103818111156114a1576114a1612120565b634e487b7160e01b600052603160045260246000fdfea164736f6c6343000811000a",
  "linkReferences": {},
  "deployedLinkReferences": {}
}