{
  "_format": "hh-sol-artifact-1",
  "contractName": "GoldTraceability",
  "sourceName": "contracts/GoldTraceability.sol",
  "abi": [
    {
      "inputs": [],
      "stateMutability": "nonpayable",
      "type": "constructor"
    },
    {
      "anonymous": false,
      "inputs": [
        {
          "indexed": true,
          "internalType": "uint256",
          "name": "blockId",
          "type": "uint256"
        },
        {
          "indexed": true,
          "internalType": "address",
          "name": "user",
          "type": "address"
        }
      ],
      "name": "AuthorizationRevoked",
      "type": "event"
    },
    {
      "anonymous": false,
      "inputs": [
        {
          "indexed": false,
          "internalType": "uint32",
          "name": "blockId",
          "type": "uint32"
        },
        {
          "indexed": false,
          "internalType": "bytes2",
          "name": "producer",
          "type": "bytes2"
        },
        {
          "indexed": false,
          "internalType": "bytes",
          "name": "location",
          "type": "bytes"
        },
        {
          "indexed": false,
          "internalType": "uint256",
          "name": "weight",
          "type": "uint256"
        },
        {
          "indexed": false,
          "internalType": "uint256",
          "name": "timestamp",
          "type": "uint256"
        },
        {
          "indexed": false,
          "internalType": "address",
          "name": "owner",
          "type": "address"
        }
      ],
      "name": "GoldBlockCreated",
      "type": "event"
    },
    {
      "anonymous": false,
      "inputs": [
        {
          "indexed": false,
          "internalType": "uint256",
          "name": "blockId",
          "type": "uint256"
        }
      ],
      "name": "GoldBlockDestroyed",
      "type": "event"
    },
    {
      "anonymous": false,
      "inputs": [
        {
          "indexed": false,
          "internalType": "uint256",
          "name": "blockId",
          "type": "uint256"
        },
        {
          "indexed": false,
          "internalType": "address",
          "name": "from",
          "type": "address"
        },
        {
          "indexed": false,
          "internalType": "address",
          "name": "to",
          "type": "address"
        },
        {
          "indexed": false,
          "internalType": "uint256",
          "name": "timestamp",
          "type": "uint256"
        }
      ],
      "name": "GoldBlockTransferred",
      "type": "event"
    },
    {
      "anonymous": false,
      "inputs": [
        {
          "indexed": true,
          "internalType": "address",
          "name": "previousOwner",
          "type": "address"
        },
        {
          "indexed": true,
          "internalType": "address",
          "name": "newOwner",
          "type": "address"
        }
      ],
      "name": "OwnershipTransferred",
      "type": "event"
    },
    {
      "anonymous": false,
      "inputs": [
        {
          "indexed": false,
          "internalType": "uint256",
          "name": "transactionId",
          "type": "uint256"
        },
        {
          "indexed": false,
          "internalType": "uint256",
          "name": "blockId",
          "type": "uint256"
        },
        {
          "indexed": false,
          "internalType": "address",
          "name": "from",
          "type": "address"
        },
        {
          "indexed": false,
          "internalType": "address",
          "name": "to",
          "type": "address"
        },
        {
          "indexed": false,
          "internalType": "uint256",
          "name": "timestamp",
          "type": "uint256"
        }
      ],
      "name": "TransactionCreated",
      "type": "event"
    },
    {
      "anonymous": false,
      "inputs": [
        {
          "indexed": true,
          "internalType": "uint256",
          "name": "blockId",
          "type": "uint256"
        },
        {
          "indexed": true,
          "internalType": "address",
          "name": "user",
          "type": "address"
        }
      ],
      "name": "UserAuthorized",
      "type": "event"
    },
    {
      "inputs": [
        {
          "internalType": "uint32",
          "name": "",
          "type": "uint32"
        },
        {
          "internalType": "address",
          "name": "",
          "type": "address"
        }
      ],
      "name": "authorizedUsers",
      "outputs": [
        {
          "internalType": "bool",
          "name": "",
          "type": "bool"
        }
      ],
      "stateMutability": "view",
      "type": "function"
    },
    {
      "inputs": [
        {
          "internalType": "bytes8",
          "name": "id",
          "type": "bytes8"
        },
        {
          "internalType": "bytes2",
          "name": "producer",
          "type": "bytes2"
        },
        {
          "internalType": "bytes",
          "name": "location",
          "type": "bytes"
        },
        {
          "internalType": "uint32",
          "name": "weight",
          "type": "uint32"
        },
        {
          "internalType": "uint256",
          "name": "timestamp",
          "type": "uint256"
        },
        {
          "internalType": "uint32[]",
          "name": "parentIds",
          "type": "uint32[]"
        },
        {
          "internalType": "enum GoldTraceability.GoldType",
          "name": "goldType",
          "type": "uint8"
        },
        {
          "internalType": "bytes",
          "name": "signature",
          "type": "bytes"
        }
      ],
      "name": "createGoldBlock",
      "outputs": [],
      "stateMutability": "nonpayable",
      "type": "function"
    },
    {
      "inputs": [
        {
          "internalType": "uint32",
          "name": "blockId",
          "type": "uint32"
        }
      ],
      "name": "destroyGoldBlock",
      "outputs": [],
      "stateMutability": "nonpayable",
      "type": "function"
    },
    {
      "inputs": [
        {
          "internalType": "address",
          "name": "owner",
          "type": "address"
        }
      ],
      "name": "getGoldBlocksByOwner",
      "outputs": [
        {
          "internalType": "uint32[]",
          "name": "",
          "type": "uint32[]"
        }
      ],
      "stateMutability": "view",
      "type": "function"
    },
    {
      "inputs": [
        {
          "internalType": "uint32",
          "name": "blockId",
          "type": "uint32"
        }
      ],
      "name": "getParentIds",
      "outputs": [
        {
          "internalType": "uint32[]",
          "name": "",
          "type": "uint32[]"
        }
      ],
      "stateMutability": "view",
      "type": "function"
    },
    {
      "inputs": [
        {
          "internalType": "uint32",
          "name": "blockId",
          "type": "uint32"
        }
      ],
      "name": "getTransactionIds",
      "outputs": [
        {
          "internalType": "uint32[]",
          "name": "",
          "type": "uint32[]"
        }
      ],
      "stateMutability": "view",
      "type": "function"
    },
    {
      "inputs": [
        {
          "internalType": "address",
          "name": "addr",
          "type": "address"
        }
      ],
      "name": "getTransactionsByAddress",
      "outputs": [
        {
          "internalType": "uint32[]",
          "name": "",
          "type": "uint32[]"
        }
      ],
      "stateMutability": "view",
      "type": "function"
    },
    {
      "inputs": [
        {
          "internalType": "uint32",
          "name": "",
          "type": "uint32"
        }
      ],
      "name": "goldBlocks",
      "outputs": [
        {
          "internalType": "bytes8",
          "name": "id",
          "type": "bytes8"
        },
        {
          "internalType": "bytes2",
          "name": "producer",
          "type": "bytes2"
        },
        {
          "internalType": "bytes",
          "name": "location",
          "type": "bytes"
        },
        {
          "internalType": "uint32",
          "name": "weight",
          "type": "uint32"
        },
        {
          "internalType": "uint256",
          "name": "timestamp",
          "type": "uint256"
        },
        {
          "internalType": "address",
          "name": "owner",
          "type": "address"
        },
        {
          "internalType": "enum GoldTraceability.GoldType",
          "name": "goldType",
          "type": "uint8"
        }
      ],
      "stateMutability": "view",
      "type": "function"
    },
    {
      "inputs": [
        {
          "internalType": "uint32",
          "name": "blockId",
          "type": "uint32"
        },
        {
          "internalType": "address[]",
          "name": "users",
          "type": "address[]"
        }
      ],
      "name": "grantAccess",
      "outputs": [],
      "stateMutability": "nonpayable",
      "type": "function"
    },
    {
      "inputs": [],
      "name": "owner",
      "outputs": [
        {
          "internalType": "address",
          "name": "",
          "type": "address"
        }
      ],
      "stateMutability": "view",
      "type": "function"
    },
    {
      "inputs": [],
      "name": "renounceOwnership",
      "outputs": [],
      "stateMutability": "nonpayable",
      "type": "function"
    },
    {
      "inputs": [
        {
          "internalType": "uint32",
          "name": "blockId",
          "type": "uint32"
        },
        {
          "internalType": "address[]",
          "name": "users",
          "type": "address[]"
        }
      ],
      "name": "revokeAuthorization",
      "outputs": [],
      "stateMutability": "nonpayable",
      "type": "function"
    },
    {
      "inputs": [
        {
          "internalType": "uint32",
          "name": "",
          "type": "uint32"
        }
      ],
      "name": "transactions",
      "outputs": [
        {
          "internalType": "address",
          "name": "from",
          "type": "address"
        },
        {
          "internalType": "address",
          "name": "to",
          "type": "address"
        },
        {
          "internalType": "uint32",
          "name": "blockId",
          "type": "uint32"
        },
        {
          "internalType": "uint256",
          "name": "timestamp",
          "type": "uint256"
        }
      ],
      "stateMutability": "view",
      "type": "function"
    },
    {
      "inputs": [
        {
          "internalType": "uint32",
          "name": "blockId",
          "type": "uint32"
        },
        {
          "internalType": "address",
          "name": "to",
          "type": "address"
        }
      ],
      "name": "transferGoldBlock",
      "outputs": [],
      "stateMutability": "nonpayable",
      "type": "function"
    },
    {
      "inputs": [
        {
          "internalType": "address",
          "name": "newOwner",
          "type": "address"
        }
      ],
      "name": "transferOwnership",
      "outputs": [],
      "stateMutability": "nonpayable",
      "type": "function"
    }
  ],
  "bytecode": "0x608060405234801561001057600080fd5b5061001a33610036565b600780546001600160401b031916640100000001179055610086565b600080546001600160a01b038381166001600160a01b0319831681178455604051919092169283917f8be0079c531659141344cd1fd0a4f28419497f9722a3daafe3b4186f6b6457e09190a35050565b61227b806100956000396000f3fe608060405234801561001057600080fd5b50600436106100f55760003560e01c80638da5cb5b11610097578063bd00597511610066578063bd0059751461021e578063d852eb001461029f578063dfd1cfe1146102b2578063f2fde38b146102c557600080fd5b80638da5cb5b146101b757806390aae455146101d2578063a3744b20146101e5578063bb08bdd31461020b57600080fd5b80636081fa8f116100d35780636081fa8f1461014b57806363b3eac2146101895780636e56c5321461019c578063715018a6146101af57600080fd5b80630947b4dc146100fa57806322996aa1146101235780633c0cc49814610138575b600080fd5b61010d61010836600461199e565b6102d8565b60405161011a91906119c0565b60405180910390f35b610136610131366004611a27565b610370565b005b610136610146366004611ac7565b61068d565b610179610159366004611a27565b600660209081526000928352604080842090915290825290205460ff1681565b604051901515815260200161011a565b610136610197366004611c97565b6107e5565b61010d6101aa36600461199e565b610ca4565b610136610d14565b6000546040516001600160a01b03909116815260200161011a565b61010d6101e0366004611d6c565b610d28565b6101f86101f3366004611d6c565b610d98565b60405161011a9796959493929190611def565b610136610219366004611ac7565b610e82565b61026961022c366004611d6c565b60026020819052600091825260409091208054600182015491909201546001600160a01b0392831692821691600160a01b900463ffffffff169084565b604080516001600160a01b03958616815294909316602085015263ffffffff90911691830191909152606082015260800161011a565b6101366102ad366004611d6c565b610fd2565b61010d6102c0366004611d6c565b611113565b6101366102d336600461199e565b611183565b6001600160a01b03811660009081526005602090815260409182902080548351818402810184019094528084526060939283018282801561036457602002820191906000526020600020906000905b82829054906101000a900463ffffffff1663ffffffff16815260200190600401906020826003010492830192600103820291508084116103275790505b50505050509050919050565b63ffffffff821660009081526003602052604090206004015482906001600160a01b03166103e55760405162461bcd60e51b815260206004820152601960248201527f476f6c6420626c6f636b20646f6573206e6f742065786973740000000000000060448201526064015b60405180910390fd5b63ffffffff831660009081526003602052604090206004015483906001600160a01b0316331480610436575063ffffffff8116600090815260066020908152604080832033845290915290205460ff165b6104825760405162461bcd60e51b815260206004820152600e60248201527f4e6f7420617574686f72697a656400000000000000000000000000000000000060448201526064016103dc565b63ffffffff8481166000818152600360209081526040808320600490810180546001600160a01b031981166001600160a01b038c8116918217909355865282855283862080546001810182559087528587206008820401805460079092169094026101000a9889021916979096029690961790559390921680825283822080548551818602810186019096528086529194929390919083018282801561057357602002820191906000526020600020906000905b82829054906101000a900463ffffffff1663ffffffff16815260200190600401906020826003010492830192600103820291508084116105365790505b50506040516356b3fb1760e11b815293945073__$a02d28e1966ef4c11049328dfe60c3fe58$__9363ad67f62e93506105b492508591508a90600401611e72565b600060405180830381865af41580156105d1573d6000803e3d6000fd5b505050506040513d6000823e601f3d908101601f191682016040526105f99190810190611ec9565b6001600160a01b038316600090815260046020908152604090912082516106269391929190910190611863565b50610632868387611213565b6040805163ffffffff881681523360208201526001600160a01b0387168183015242606082015290517f4a19f7037de5f58b97e82d2c8a55ea5babd1b35073a969ea4287796b2f6300679181900360800190a1505050505050565b63ffffffff821660009081526003602052604090206004015482906001600160a01b031633146106ff5760405162461bcd60e51b815260206004820152601e60248201527f4f6e6c79206f776e65722063616e20617574686f72697a65207573657273000060448201526064016103dc565b60005b82518110156107df5763ffffffff8416600090815260066020526040812084516001929086908590811061073857610738611f63565b60200260200101516001600160a01b03166001600160a01b0316815260200190815260200160002060006101000a81548160ff02191690831515021790555082818151811061078957610789611f63565b60200260200101516001600160a01b03168463ffffffff167f4eebcb0f1bbb6d724ee065a3c0c8445b72ac42c3be3539b2abf744a5ae7ec07e60405160405180910390a3806107d781611f8f565b915050610702565b50505050565b6001600160c01b031988166000908152600160205260409020541561084c5760405162461bcd60e51b815260206004820152600f60248201527f494420616c72656164792075736564000000000000000000000000000000000060448201526064016103dc565b60006108d8826108d28b8b8b8b8b8b8b6040516020016108729796959493929190611fcd565b60408051601f1981840301815282825280516020918201207f19457468657265756d205369676e6564204d6573736167653a0a33320000000084830152603c8085019190915282518085039091018152605c909301909152815191012090565b906113b7565b90506001600160a01b0381166109305760405162461bcd60e51b815260206004820152601160248201527f496e76616c6964207369676e617475726500000000000000000000000000000060448201526064016103dc565b6001600160a01b03811633146109885760405162461bcd60e51b815260206004820152601160248201527f496e76616c6964207369676e617475726500000000000000000000000000000060448201526064016103dc565b60408051610120810182526001600160c01b03198b1681526001600160f01b03198a166020808301919091528183018a905263ffffffff89166060830152608082018890526001600160a01b03841660a0830152825160008082529181019093529160c08201908152602001868152602001856001811115610a0c57610a0c611dd9565b905260075463ffffffff16600090815260036020908152604091829020835181549285015160f01c680100000000000000000269ffffffffffffffffffff1990931660c09190911c179190911781559082015191925082916001820190610a73908261210f565b50606082015160028201805463ffffffff191663ffffffff9092169190911790556080820151600382015560a08201516004820180546001600160a01b0319166001600160a01b0390921691909117905560c08201518051610adf916005840191602090910190611863565b5060e08201518051610afb916006840191602090910190611863565b5061010082015160078201805460ff191660018381811115610b1f57610b1f611dd9565b021790555090505060046000836001600160a01b03166001600160a01b03168152602001908152602001600020600760009054906101000a900463ffffffff1690806001815401808255809150506001900390600052602060002090600891828204019190066004029091909190916101000a81548163ffffffff021916908363ffffffff160217905550600760009054906101000a900463ffffffff1663ffffffff16600160008c77ffffffffffffffffffffffffffffffffffffffffffffffff191677ffffffffffffffffffffffffffffffffffffffffffffffff19168152602001908152602001600020819055507f3789b65885b83845e9f735d9217d63e0d52d7d8aba95f35eab8a15a42b1e8953600760009054906101000a900463ffffffff168a8a8a8a87604051610c5b969594939291906121cf565b60405180910390a16007805463ffffffff16906000610c7983612222565b91906101000a81548163ffffffff021916908363ffffffff1602179055505050505050505050505050565b6001600160a01b038116600090815260046020908152604091829020805483518184028101840190945280845260609392830182828015610364576000918252602091829020805463ffffffff168452908202830192909160049101808411610327575094979650505050505050565b610d1c6113dd565b610d266000611437565b565b63ffffffff8116600090815260036020908152604091829020600501805483518184028101840190945280845260609392830182828015610364576000918252602091829020805463ffffffff168452908202830192909160049101808411610327575094979650505050505050565b6003602052600090815260409020805460018201805460c083901b936801000000000000000090930460f01b929190610dd090612086565b80601f0160208091040260200160405190810160405280929190818152602001828054610dfc90612086565b8015610e495780601f10610e1e57610100808354040283529160200191610e49565b820191906000526020600020905b815481529060010190602001808311610e2c57829003601f168201915b505050600284015460038501546004860154600790960154949563ffffffff909216949093506001600160a01b03909116915060ff1687565b63ffffffff821660009081526003602052604090206004015482906001600160a01b03163314610ef45760405162461bcd60e51b815260206004820152601e60248201527f4f6e6c79206f776e65722063616e20617574686f72697a65207573657273000060448201526064016103dc565b60005b82518110156107df5763ffffffff8416600090815260066020526040812084518290869085908110610f2b57610f2b611f63565b60200260200101516001600160a01b03166001600160a01b0316815260200190815260200160002060006101000a81548160ff021916908315150217905550828181518110610f7c57610f7c611f63565b60200260200101516001600160a01b03168463ffffffff167f401e9ce95c53a4bfcb691ca7968f364e172354257dbb2ab9f9b588834212f84c60405160405180910390a380610fca81611f8f565b915050610ef7565b610fda6113dd565b63ffffffff81166000908152600360205260409020600401546001600160a01b03166110485760405162461bcd60e51b815260206004820152601960248201527f476f6c6420626c6f636b20646f6573206e6f742065786973740000000000000060448201526064016103dc565b61105181611487565b63ffffffff81166000908152600360205260408120805469ffffffffffffffffffff19168155906110856001830182611912565b60028201805463ffffffff191690556000600383018190556004830180546001600160a01b03191690556110bd90600584019061194c565b6110cb60068301600061194c565b50600701805460ff1916905560405163ffffffff821681527f0e49e60e26a0d47b015756fa57bb554a4e36b2b04d977edc8e5998f46b2613d39060200160405180910390a150565b63ffffffff8116600090815260036020908152604091829020600601805483518184028101840190945280845260609392830182828015610364576000918252602091829020805463ffffffff168452908202830192909160049101808411610327575094979650505050505050565b61118b6113dd565b6001600160a01b0381166112075760405162461bcd60e51b815260206004820152602660248201527f4f776e61626c653a206e6577206f776e657220697320746865207a65726f206160448201527f646472657373000000000000000000000000000000000000000000000000000060648201526084016103dc565b61121081611437565b50565b604080516080810182526001600160a01b038085168252838116602080840191825263ffffffff8089168587018181524260608801818152600093845260038652898420600780546005909201805460018181018355918852898820600882040180549184166004026101000a640100000000958690048b168102908b0219909216919091179055815483900488168752600298899052958c90208b518154908c166001600160a01b03199091161781559851958901805495518816600160a01b026001600160c01b031990961696909a169590951793909317909755955194909301939093559154945193947f5f6691791e2b4d688c51e354745bde3d6241c32436450235df6ccba1adbaea819461136c9492909104909216918891889188919063ffffffff95861681529390941660208401526001600160a01b039182166040840152166060820152608081019190915260a00190565b60405180910390a160078054640100000000900463ffffffff1690600461139283612222565b91906101000a81548163ffffffff021916908363ffffffff1602179055505050505050565b60008060006113c68585611610565b915091506113d381611655565b5090505b92915050565b6000546001600160a01b03163314610d265760405162461bcd60e51b815260206004820181905260248201527f4f776e61626c653a2063616c6c6572206973206e6f7420746865206f776e657260448201526064016103dc565b600080546001600160a01b038381166001600160a01b0319831681178455604051919092169283917f8be0079c531659141344cd1fd0a4f28419497f9722a3daafe3b4186f6b6457e09190a35050565b63ffffffff811660009081526003602090815260408083206004908101546001600160a01b03168085529252822090915b815463ffffffff821610156107df578363ffffffff16828263ffffffff16815481106114e6576114e6611f63565b6000918252602090912060088204015460079091166004026101000a900463ffffffff16036115fe57815461151d90600190612245565b8163ffffffff16146115bb578154829061153990600190612245565b8154811061154957611549611f63565b90600052602060002090600891828204019190066004029054906101000a900463ffffffff16828263ffffffff168154811061158757611587611f63565b90600052602060002090600891828204019190066004026101000a81548163ffffffff021916908363ffffffff1602179055505b818054806115cb576115cb612258565b600082815260209020600860001990920191820401805463ffffffff600460078516026101000a021916905590556107df565b8061160881612222565b9150506114b8565b60008082516041036116465760208301516040840151606085015160001a61163a8782858561179f565b9450945050505061164e565b506000905060025b9250929050565b600081600481111561166957611669611dd9565b036116715750565b600181600481111561168557611685611dd9565b036116d25760405162461bcd60e51b815260206004820152601860248201527f45434453413a20696e76616c6964207369676e6174757265000000000000000060448201526064016103dc565b60028160048111156116e6576116e6611dd9565b036117335760405162461bcd60e51b815260206004820152601f60248201527f45434453413a20696e76616c6964207369676e6174757265206c656e6774680060448201526064016103dc565b600381600481111561174757611747611dd9565b036112105760405162461bcd60e51b815260206004820152602260248201527f45434453413a20696e76616c6964207369676e6174757265202773272076616c604482015261756560f01b60648201526084016103dc565b6000807f7fffffffffffffffffffffffffffffff5d576e7357a4501ddfe92f46681b20a08311156117d6575060009050600361185a565b6040805160008082526020820180845289905260ff881692820192909252606081018690526080810185905260019060a0016020604051602081039080840390855afa15801561182a573d6000803e3d6000fd5b5050604051601f1901519150506001600160a01b0381166118535760006001925092505061185a565b9150600090505b94509492505050565b828054828255906000526020600020906007016008900481019282156119025791602002820160005b838211156118d057835183826101000a81548163ffffffff021916908363ffffffff160217905550926020019260040160208160030104928301926001030261188c565b80156119005782816101000a81549063ffffffff02191690556004016020816003010492830192600103026118d0565b505b5061190e92915061196d565b5090565b50805461191e90612086565b6000825580601f1061192e575050565b601f016020900490600052602060002090810190611210919061196d565b50805460008255600701600890049060005260206000209081019061121091905b5b8082111561190e576000815560010161196e565b80356001600160a01b038116811461199957600080fd5b919050565b6000602082840312156119b057600080fd5b6119b982611982565b9392505050565b6020808252825182820181905260009190848201906040850190845b818110156119fe57835163ffffffff16835292840192918401916001016119dc565b50909695505050505050565b63ffffffff8116811461121057600080fd5b803561199981611a0a565b60008060408385031215611a3a57600080fd5b8235611a4581611a0a565b9150611a5360208401611982565b90509250929050565b634e487b7160e01b600052604160045260246000fd5b604051601f8201601f1916810167ffffffffffffffff81118282101715611a9b57611a9b611a5c565b604052919050565b600067ffffffffffffffff821115611abd57611abd611a5c565b5060051b60200190565b60008060408385031215611ada57600080fd5b8235611ae581611a0a565b915060208381013567ffffffffffffffff811115611b0257600080fd5b8401601f81018613611b1357600080fd5b8035611b26611b2182611aa3565b611a72565b81815260059190911b82018301908381019088831115611b4557600080fd5b928401925b82841015611b6a57611b5b84611982565b82529284019290840190611b4a565b80955050505050509250929050565b80356001600160c01b03198116811461199957600080fd5b80356001600160f01b03198116811461199957600080fd5b600082601f830112611bba57600080fd5b813567ffffffffffffffff811115611bd457611bd4611a5c565b611be7601f8201601f1916602001611a72565b818152846020838601011115611bfc57600080fd5b816020850160208301376000918101602001919091529392505050565b600082601f830112611c2a57600080fd5b81356020611c3a611b2183611aa3565b82815260059290921b84018101918181019086841115611c5957600080fd5b8286015b84811015611c7d578035611c7081611a0a565b8352918301918301611c5d565b509695505050505050565b80356002811061199957600080fd5b600080600080600080600080610100898b031215611cb457600080fd5b611cbd89611b79565b9750611ccb60208a01611b91565b9650604089013567ffffffffffffffff80821115611ce857600080fd5b611cf48c838d01611ba9565b9750611d0260608c01611a1c565b965060808b0135955060a08b0135915080821115611d1f57600080fd5b611d2b8c838d01611c19565b9450611d3960c08c01611c88565b935060e08b0135915080821115611d4f57600080fd5b50611d5c8b828c01611ba9565b9150509295985092959890939650565b600060208284031215611d7e57600080fd5b81356119b981611a0a565b60005b83811015611da4578181015183820152602001611d8c565b50506000910152565b60008151808452611dc5816020860160208601611d89565b601f01601f19169290920160200192915050565b634e487b7160e01b600052602160045260246000fd5b6001600160c01b03198816815261ffff60f01b8716602082015260e060408201526000611e1f60e0830188611dad565b905063ffffffff861660608301528460808301526001600160a01b03841660a083015260028310611e6057634e487b7160e01b600052602160045260246000fd5b8260c083015298975050505050505050565b604080825283519082018190526000906020906060840190828701845b82811015611eb157815163ffffffff1684529284019290840190600101611e8f565b50505063ffffffff9490941692019190915250919050565b60006020808385031215611edc57600080fd5b825167ffffffffffffffff811115611ef357600080fd5b8301601f81018513611f0457600080fd5b8051611f12611b2182611aa3565b81815260059190911b82018301908381019087831115611f3157600080fd5b928401925b82841015611f58578351611f4981611a0a565b82529284019290840190611f36565b979650505050505050565b634e487b7160e01b600052603260045260246000fd5b634e487b7160e01b600052601160045260246000fd5b600060018201611fa157611fa1611f79565b5060010190565b60028110611fc657634e487b7160e01b600052602160045260246000fd5b60f81b9052565b6001600160c01b0319881681526001600160f01b0319871660088201528551600090602061200182600a8601838c01611d89565b60e088901b7fffffffff0000000000000000000000000000000000000000000000000000000016600a92850192830152600e82018790528551602e9092019181870160005b8281101561206857815163ffffffff1685529383019390830190600101612046565b505050506120768185611fa8565b6001019998505050505050505050565b600181811c9082168061209a57607f821691505b6020821081036120ba57634e487b7160e01b600052602260045260246000fd5b50919050565b601f82111561210a57600081815260208120601f850160051c810160208610156120e75750805b601f850160051c820191505b81811015612106578281556001016120f3565b5050505b505050565b815167ffffffffffffffff81111561212957612129611a5c565b61213d816121378454612086565b846120c0565b602080601f831160018114612172576000841561215a5750858301515b600019600386901b1c1916600185901b178555612106565b600085815260208120601f198616915b828110156121a157888601518255948401946001909101908401612182565b50858210156121bf5787850151600019600388901b60f8161c191681555b5050505050600190811b01905550565b600063ffffffff808916835261ffff60f01b8816602084015260c060408401526121fc60c0840188611dad565b951660608301525060808101929092526001600160a01b031660a0909101529392505050565b600063ffffffff80831681810361223b5761223b611f79565b6001019392505050565b818103818111156113d7576113d7611f79565b634e487b7160e01b600052603160045260246000fdfea164736f6c6343000811000a",
  "linkReferences": {
    "contracts/libs/ArrayUtils.sol": {
      "ArrayUtils": [
        {
          "length": 20,
          "start": 1564
        }
      ]
    }
  },
  "deployedLinkReferences": {
    "contracts/libs/ArrayUtils.sol": {
      "ArrayUtils": [
        {
          "length": 20,
          "start": 1415
        }
      ]
    }
  }
}